:100000000C946A000C9492000C9492000C94920050
:100010000C9492000C9492000C9492000C94920018
:100020000C9492000C9492000C9492000C94920008
:100030000C9492000C9492000C9492000C949200F8
:100040000C942D0E0C9492000C94FC0C0C94D60C79
:100050000C9492000C9492000C9492000C949200D8
:100060000C94770E0C9492007C3C3E5E2B3D3F2F0F
:100070005B5D3B2C2A225C0000000000240027006E
:100080002A0000000000250028002B0000000000CE
:1000900023002600290004040404040404040202CA
:1000A00002020202030303030303010204081020F7
:1000B0004080010204081020010204081020000002
:1000C0000008000201000003040700000000000017
:1000D0000000231C11241FBECFEFD8E0DEBFCDBF30
:1000E00011E0A0E0B1E0EAECFFE302C005900D9260
:1000F000A03FB107D9F726E0A0EFB1E001C01D9203
:10010000AF33B207E1F710E0CAE6D0E004C02197B0
:10011000FE010E948C1EC936D107C9F70E94BE1588
:100120000C94E31F0C940000DC015996ED91FC91B6
:100130005A973097B9F083899489A589B689428501
:10014000538564857585841B950BA60BB70B8115AC
:1001500020E89207A105B10538F08FEF9FE7A0E0F6
:10016000B0E0089580E090E00895CF93DF931F9270
:10017000CDB7DEB76983DC01ED91FC910280F3819C
:10018000E02D41E050E0BE016F5F7F4F09950F9079
:10019000DF91CF910895089580E090E00895CF9386
:1001A000DF93EC018D81882379F18C8187FF28C052
:1001B0006E857F858889998941E00E94E00F8823B8
:1001C00019F1EA8980E2E89FF0011124E35FFC4F16
:1001D0003097D1F08D81823040F48B899C89AD8934
:1001E000BE89848F958FA68FB78F8F89988DA98DA3
:1001F000BA8D938F828FB58BA48B8C818F778C83F4
:10020000DF91CF910C94A50F80E0DF91CF910895FD
:10021000FC01818D928D009711F00C94CF00089510
:100220003F924F925F926F927F928F929F92AF9286
:10023000BF92CF92DF92EF92FF920F931F93CF93D3
:10024000DF93CDB7DEB72C970FB6F894DEBF0FBEA5
:10025000CDBF5C01DC015B968D909C905C971696FF
:10026000CD90DD90ED90FC901997C114D104E1047C
:10027000F10439F0BFEFCB1ADB0AEB0AFB0A312C91
:1002800007C0F401C080D180E280F380332433942E
:10029000F40181859285A385B4859C01AD012F5F12
:1002A0003F4F4F4F5F4F29873A874B875C87260127
:1002B00037011D821E821F821886F4018185928576
:1002C000A385B4852D813E814F8158852817390734
:1002D0004A075B0708F063C089859A85AB85BC85B2
:1002E0008C159D05AE05BF0550F482E0C82ED12CBB
:1002F000E12CF12C92E0492E512C612C712C9E01A5
:100300002F5F3F4FB701A601C4010E94CA10882386
:1003100009F445C089819A81AB81BC81892B8A2BE4
:100320008B2B41F0260137019FEF491A590A690AC0
:10033000790A05C0C414D504E604F70491F02D81B0
:100340003E814F8158852F5F3F4F4F4F5F4F2D8329
:100350003E834F8358873FEFC31AD30AE30AF30A59
:10036000ACCF0FEF1FEF2FEF3FE0B301A201C401AD
:100370000E942910882399F0D50116964D915D9120
:100380006D917C911997411551056105710549F0F1
:1003900093018201C4010E942910811102C080E0F2
:1003A0002AC0D50116964D925D926D927C92199756
:1003B000332051F0D301C2010196A11DB11DF401FA
:1003C00080839183A283B383F5018789908DA18D6A
:1003D000B28D892B8A2B8B2B69F4D50157964D92C0
:1003E0005D926D927C925A9714968C9114978068C6
:1003F00014968C9381E02C960FB6F894DEBF0FBE56
:10040000CDBFDF91CF911F910F91FF90EF90DF90C3
:10041000CF90BF90AF909F908F907F906F905F90A4
:100420004F903F9008958F929F92AF92BF92CF923C
:10043000DF92EF92FF920F931F93CF93DF93EC0124
:100440008D81811102C080E078C00B891C892D89C3
:100450003E890417150726073707A8F36A017B01B1
:10046000823029F4CA86DB86EC86FD860DC0C11475
:10047000D104E104F10451F41E821F82188619860A
:100480001A861B861C861D8681E057C08A849B8441
:10049000AC84BD84EB8DFC8D258530E0275F3F4F1C
:1004A000B501A4014150510961097109022E04C02E
:1004B00076956795579547950A94D2F7D701C60167
:1004C0000197A109B10904C0B695A795979587959D
:1004D0002A95D2F784179507A607B70720F0892831
:1004E0008A288B2871F44F89588D698D7A8D4E83B7
:1004F0005F83688779874C015D018E010A5F1F4F1A
:1005000016C0841B950BA60BB70BF5CF4E815F81F0
:100510006885798598018B8D9C8D0E94CA1091E029
:10052000891A9108A108B108882309F48CCF811495
:100530009104A104B10451F795CFDF91CF911F91A0
:100540000F91FF90EF90DF90CF90BF90AF909F9072
:100550008F9008958F929F92AF92BF92CF92DF9229
:10056000EF92FF920F931F93CF93DF9300D000D0B1
:10057000CDB7DEB77C0180E2689FF0011124E35F14
:10058000FC4F9385917121F0842F827409F08FC004
:10059000142FD70152966C9352974091200150919D
:1005A000210160912201709123011E964D935D936C
:1005B0006D937C9351974489558960E070E0BA014E
:1005C00055274427828D938DA0E0B0E0482B592B0E
:1005D0006A2B7B2BD70157964D935D936D937C933C
:1005E0005A978385887159F4848D958DA68DB78D22
:1005F000F701838B948BA58BB68B81E012C0803181
:1006000009F055C097012D5E3F4FD7015B968D9144
:100610009C915C970E94BD11882309F448C084E036
:10062000F7018583812F8F70D70114968C931497CF
:10063000F70116821782108611861A961D921D9256
:100640001D921C921D9716FF34C015968C91813017
:1006500071F511FF2CC0F7014389548965897689AA
:10066000452B462B472B09F461C040E050E0BA010E
:10067000C7010E9413028823D1F0F7018788908C6C
:10068000A18CB28CC38CD48C82E090E0A0E0B0E06E
:10069000F60180839183A283B3839E012F5F3F4F36
:1006A000B501A401C6010E94CA10811104C080E0F6
:1006B0003DC081E03BC000E010E09801B501A4011D
:1006C000C6010E942910882391F389809A80AB800B
:1006D000BC80D60157968C91803129F088EF9FEF2E
:1006E000AFEFBFE004C088EF9FEFA0E0B0E0881656
:1006F0009906AA06BB0688F2D70157961D921D924D
:100700001D921C925A97F701138A148A158A168A29
:10071000848180688483C7010E94CF00882339F2D6
:1007200040E050E0BA01C7010E9413020F900F9001
:100730000F900F90DF91CF911F910F91FF90EF904D
:10074000DF90CF90BF90AF909F908F900895CF9300
:10075000DF93EC010E94CF00882311F01D8281E01D
:10076000DF91CF9108959FB7F8942091180280915E
:10077000F101213019F48DBB9FBF08958FBF0895FB
:1007800061E0FC0184810E94570D8091F001882373
:1007900039F01092F0018091180281110C94B3038A
:1007A00008958EBD00000DB407FEFDCF8EB50895EF
:1007B0008FEF0C94D1030F931F93CF93DF93EB0133
:1007C0000E94210E8B010E94D8038F3F49F00E94A6
:1007D000210E601B710B6C177D07A8F380E001C030
:1007E00081E0DF91CF911F910F910895CF93DF9317
:1007F000EC018E81882389F08F8198859C012F5F81
:100800003F4F38872F838230924018F40E94D803DC
:10081000F3CFCE010E94C0031E82DF91CF910895D5
:1008200020911802222379F02FB7F8943091180202
:10083000313039F43DB33093F1013DB33DBB2FBFAF
:1008400002C02093F1018CBD9DBD0895CF93DF932D
:10085000EC018091F001811109C081E08093F001E9
:100860008091B8059091B9050E94100460E08C81D8
:10087000DF91CF910C94570D8F929F92AF92BF92C0
:10088000FF920F931F93CF93DF93EC01F62E490154
:100890005A010E94F603CE010E9426046CE271E028
:1008A000CE010E94DB038F2D80640E94D10308E1FA
:1008B00010E0D501C401002E04C0B695A795979508
:1008C00087950A94D2F70E94D10308501109083F76
:1008D0008FEF180771F7FF2029F088E0F81204C0A5
:1008E00087E803C085E901C08FEF0E94D10310E0C3
:1008F0000E94D8038A8787FF04C01F3F11F01F5F43
:10090000F7CFDF91CF911F910F91FF90BF90AF90E4
:100910009F908F900895AF92BF92CF92DF92EF9207
:10092000FF920F931F93CF93DF93EC016901C801EE
:10093000820F931F8130924008F070C08E8188230F
:1009400071F088819981AA81BB8184179507A607D8
:10095000B70729F48F819885C816D906B0F5488362
:1009600059836A837B838B85833039F089E0440F18
:10097000551F661F771F8A95D1F79A01AB0161E178
:10098000CE010E943C04882319F083E08D8346C089
:100990000E94210E5B010E94D8038A878F3F49F491
:1009A0000E94210E6A197B096D327140A0F38FE01D
:1009B00003C08E3F31F08DE08D83CE010E94C003D5
:1009C0002DC018861F8281E08E838F8198858C15BB
:1009D0009D0540F40E94D8038F81988501969887E1
:1009E0008F83F3CF6701E00EF11EEC14FD0431F0AC
:1009F0000E94D803F60181936F01F7CF8F8198850C
:100A0000080F191F18870F838985882319F001158E
:100A1000124048F0CE010E94F60305C0CE010E94AC
:100A2000C00380E001C081E0DF91CF911F910F9161
:100A3000FF90EF90DF90CF90BF90AF9008954F92CE
:100A40005F926F927F92AF92BF92CF92DF92EF92BE
:100A5000FF920F931F93CF93DF931F92CDB7DEB713
:100A6000FC012581222309F4C1C0848180FFBEC01E
:100A700083899489A589B689428453846484758462
:100A800084159505A605B70509F4B0C06F0152019C
:100A9000F1E0BF22D6015B968D919C915C97B301EA
:100AA000A20139E076956795579547953A95D1F724
:100AB000223071F4FC01828D938DA48DB58D8A0155
:100AC0009B01080F191F2A1F3B1FC901B8014AC00B
:100AD000DC0114961C9111501423A114B104F9F4F3
:100AE00011111DC045284628472851F4F601878971
:100AF000908DA18DB28D86839783A087B1870FC01B
:100B0000D60116964D915D916D917C911997960144
:100B10002A5F3F4F0E94CA10882309F467C0F6017C
:100B2000238D348D86819781A085B1850297A10997
:100B3000B109AC01BD01F901058404C0440F551F82
:100B4000661F771F0A94D2F786859785A089B18999
:100B5000840F951FA61FB71FBC01CD01610F711D2A
:100B6000811D911DD60114962C9126FF0DC0409039
:100B700020015090210160902201709023014616BF
:100B800057066806790699F440E00E94E00F882332
:100B900069F1F501E35FFC4FDE0111969F012F5FC4
:100BA0003F4F2E173F0799F081918D93FACFFE01A9
:100BB00031967F0101E010E09501AB01BC0180910D
:100BC0000D0590910E050E948B04882379F0F601A3
:100BD00082859385A485B5850196A11DB11D828767
:100BE0009387A487B587898190E002C08FEF9FEF3C
:100BF0000F90DF91CF911F910F91FF90EF90DF90B9
:100C0000CF90BF90AF907F906F905F904F9008957E
:100C10002F923F924F925F926F927F928F929F920C
:100C2000AF92BF92CF92DF92EF92FF920F931F93FA
:100C3000CF93DF93CDB7DEB72B970FB6F894DEBF17
:100C40000FBECDBF7C01FE013196CE010C966F0127
:100C500030E23193E817F907E1F7DA0130E087E095
:100C60009D91992331F19E3231F48A3009F46BC1A0
:100C700038E08AE0F5CFE8E6F0E04491442321F043
:100C800031969413FACF5FC1831708F45CC14FED1E
:100C9000490F4E3508F057C141E0430FF601E30F0D
:100CA000F11D3FE9390F3A3108F490529083342F07
:100CB000D7CF8981803209F446C1322E8B01DB0106
:100CC0005B968D919C915C97F701948F838F16961C
:100CD0001D921D921D921C921997FB01128613867C
:100CE00014861586B12CF80182859385A485B58577
:100CF000438954896589768984179507A607B707BC
:100D000008F05BC025E0B695A795979587952A953D
:100D1000D1F7F82FFF70AF2ED80115968C91823045
:100D200008F411C1C8010E941F0597FD0CC1F8010C
:100D300082859385A485B5854F96A11DB11D8287B7
:100D40009387A487B587F0E2AF9EB0011124635F5B
:100D50007C4F6115710509F4F6C0DB018C91882385
:100D600019F0853EC1F4F1C0B1100EC0F701A28A9E
:100D70008091200190912101A0912201B091230145
:100D800086879787A08BB18BDB018C91882399F0A4
:100D9000BB24B394A8CF4BE050E0C6010E94C71F0C
:100DA000892B09F0A0CF832D8073803309F4CBC049
:100DB000432D6A2DC4C0BB24B394832D827182312C
:100DC00009F0C1C0BB20C1F0F70166857785808935
:100DD000918941E00E94E00F882309F4B4C0D70153
:100DE00052968C91B0E28B9FC0011124835F9C4F7F
:100DF000009709F078C0A7C0F8018581823009F416
:100E0000A2C0C8010E941001882309F49CC0D80127
:100E10005B96ED91FC915C9716968D909D90AD90B0
:100E2000BC901997B2E08B1A9108A108B10805840B
:100E300004C0880C991CAA1CBB1C0A94D2F7868596
:100E40009785A089B189880E991EAA1EBB1E248091
:100E5000E1E08E1A9108A108B108222009F12401CD
:100E60003501420C511C611C711C0E94A50F882386
:100E700009F469C0EDE0F3E0119225E0ED30F207EE
:100E8000D9F7409220015092210160922201709284
:100E90002301809171028160809371022A94DDCFD9
:100EA000D8015B96ED91FC915C9780E092E0A0E028
:100EB000B0E0058404C0880F991FAA1FBB1F0A94C5
:100EC000D2F7F8014389548965897689840F951F83
:100ED000A61FB71F838B948BA58BB68BD701529619
:100EE0001C928DE093E020E2FC0111922A95E9F733
:100EF0002BE0F601DC0101900D922A95E1F721E249
:100F000038E2DC0151963C932E93509740E058E034
:100F10001F965C934E931E9753963C932E93529735
:100F200059963C932E93589757965C934E935697A9
:100F30000E94A50F882339F0432DF7016289C7016C
:100F40000E94AA0205C080E003C0B11021CF0ECFDD
:100F50002B960FB6F894DEBF0FBECDBFDF91CF91B9
:100F60001F910F91FF90EF90DF90CF90BF90AF90C7
:100F70009F908F907F906F905F904F903F902F90B9
:100F80000895FC01818D928D009711F00C941F053E
:100F90008FEF9FEF08950F931F93CF93DF93FC0183
:100FA000818D928D0097B9F0EF010E941F058C0191
:100FB0000F3F8FEF180791F0898D9A8DFC014285C4
:100FC00053856485758541505109610971090E94F5
:100FD0001302C80105C080E090E002C08FEF9FEFD0
:100FE000DF91CF911F910F910895EF92FF920F9390
:100FF0001F93CF93DF93EC017901411551056105F2
:10100000710511F482E13CC08B85833039F089E0B1
:10101000440F551F661F771F8A95D1F79A01AB01C0
:1010200068E1CE010E943C04882311F084E028C0CE
:101030008EEF0E94D10387018EEFF81AF80181919B
:101040008F010E94D103E016F106C1F78FEF0E94D5
:10105000D1038FEF0E94D1030E94D8038A878F713A
:10106000853031F081E18D83CE010E94C00309C03B
:1010700068E572E0CE010E94DB03811107C085E1C3
:101080008D83CE010E94C00380E014C020E030E0D8
:10109000A9016DE0CE010E943C04811109C00E94AB
:1010A000D803811105C0CE010E94C00381E002C0B7
:1010B00084E1E6CFDF91CF911F910F91FF90EF90E8
:1010C00008952F923F924F925F926F927F928F92EC
:1010D0009F92AF92BF92CF92DF92EF92FF920F93C7
:1010E0001F93CF93DF9300D000D0CDB7DEB78C0134
:1010F0005B011A01DC0115968C9115978130C9F4BA
:1011000014968C9181FF15C082FF1DC0F8014389A0
:1011100054896589768982859385A485B5858417E8
:101120009507A607B70779F0C8010E94130281113D
:101130000AC081E090E0D80113969C938E93129799
:1011400080E090E036C1610183C05B968D919C91F7
:101150005C97FC0174802FEF270D2A013B0139E0D9
:1011600076946794579447943A95D1F7722E7420E9
:101170007A01F1E0FF22772009F476C080E092E066
:101180008E199F0946018C159D0508F44C01D80164
:101190005B962D913C915C9716968D919D910D904B
:1011A000BC91A02D0297A109B109F901058404C0E1
:1011B000880F991FAA1FBB1F0A94D2F7468557852F
:1011C00060897189840F951FA61FB71F9C01AD010F
:1011D000270D311D411D511D29013A01811432E0B5
:1011E000930609F088C08091200190912101A0917F
:1011F0002201B0912301481659066A067B0659F46C
:101200008FEF9FEFDC018093200190932101A09349
:101210002201B09323019501B301A20180910D0534
:1012200090910E050E94F507882309F482CF9EEF66
:10123000B91AC818D908F80182859385A485B5859F
:10124000880D991DA11DB11D82879387A487B5873D
:10125000D8011A964D915D916D917C911D97C114A5
:10126000D10409F072CF87C0E114F10409F086CFF0
:1012700016964D915D916D917C911997411551058F
:101280006105710559F457968D919D910D90BC9112
:10129000A02D0097A105B10541F521C09E012F5F4A
:1012A0003F4F0E94CA10882309F44BCF89819A814D
:1012B000AB81BC81F801238D348DF9012789203160
:1012C00029F048EF5FEF6FEF7FE004C048EF5FEF7A
:1012D00060E070E084179507A607B70730F0C801F3
:1012E0000E94100181114ACF24CFF8018683978391
:1012F000A087B18743CFE114F10429F5D8011A96EC
:101300004D915D916D917C911D9753968D919D911D
:101310000D90BC91A02D481759076A077B0798F0DC
:101320000E94A50F882309F404CF40922001509217
:1013300021016092220170922301809171028160EB
:101340008093710208C041E0C301B2010E94E00F26
:10135000882309F4EECED501F701E35FFC4F9F012E
:10136000280D391D2E173F0719F08D918193FACF63
:10137000A80CB91C5ECFF80183899489A589B68928
:1013800084179507A607B70738F4438B548B658BF2
:10139000768B848180688483F801848183FD02C018
:1013A000C10107C0C8010E94CF00882309F4C1CE43
:1013B000F7CF0F900F900F900F90DF91CF911F916B
:1013C0000F91FF90EF90DF90CF90BF90AF909F90E4
:1013D0008F907F906F905F904F903F902F900895E7
:1013E000CF93DF931F92CDB7DEB7698341E050E022
:1013F000BE016F5F7F4F0E9461080F90DF91CF9118
:101400000895CF93DF93EC01898D9A8D009739F47D
:1014100081E090E09B838A8380E090E00BC0FC0138
:10142000138212820E946108E98DFA8D2281338134
:10143000232B71F7DF91CF910895FC01DB01129608
:101440008D919C9113979383828382E591E09183A0
:10145000808314968C911497848315968C9115979C
:10146000858316964D915D916D917C911997468378
:101470005783608771871A964D915D916D917C912C
:101480001D9742875387648775871E964D915D919E
:101490006D917C91519746875787608B718B5296DF
:1014A0008C915297828B53964D915D916D917C9169
:1014B0005697438B548B658B768B57964D915D91E8
:1014C0006D917C915A97478B508F618F728F5B968D
:1014D0008D919C915C97948F838F0895CF93CFB714
:1014E000F89480911902811127C0E0EAF0E084911C
:1014F000E4EBF0E09491E82FF0E0EE0FFF1FE858E6
:10150000FF4FA591B491EC91E92321F461E08AE0C9
:101510000E94570D61E08AE00E94860D8CB58061C3
:101520008CBD8CB580648CBD61E08DE00E94860D21
:1015300061E08BE00E94860D809119028F5F80939D
:101540001902CFBFCF9108951F93CF93DF93EC0182
:10155000162F0E94991C181739F0612FCE01DF91C8
:10156000CF911F910C94A11CDF91CF911F910895F1
:10157000CF92DF92EF92FF920F931F93CF93DF935F
:101580006C017A018B01C0E0D0E0CE15DF0581F05F
:10159000D8016D918D01D601ED91FC910190F08102
:1015A000E02DC6010995892B11F02196EECF7E0121
:1015B000C701DF91CF911F910F91FF90EF90DF90C6
:1015C000CF900895FC01538D448D252F30E0842F5A
:1015D00090E0821B930B541710F0CF96089501975B
:1015E0000895FC01918D828D981761F0828DDF0145
:1015F000A80FB11D5D968C91928D9F5F9F73928F06
:1016000090E008958FEF9FEF0895FC01918D828DFA
:10161000981731F0828DE80FF11D858D90E00895C7
:101620008FEF9FEF0895FC01918D228D892F90E01F
:10163000805C9F4F821B91098F73992708958FE0DB
:1016400095E00E94130B21E0892B09F420E0822F02
:101650000895FC01848DDF01A80FB11DA35ABF4F6F
:101660002C91848D90E001968F739927848FA689A1
:10167000B7892C93A089B1898C91837080648C93F5
:10168000938D848D981306C00288F389E02D8081A4
:101690008F7D80830895EF92FF920F931F93CF93D6
:1016A000DF93EC0181E0888F9B8D8C8D981305C0B2
:1016B000E889F989808185FD26C0F62E0B8D10E022
:1016C0000F5F1F4F0F731127E02E8C8DE8120CC097
:1016D0000FB607FCFACFE889F989808185FFF5CF3D
:1016E000CE010E94290BF1CF8B8DFE01E80FF11D79
:1016F000E35AFF4FF0829FB7F8940B8FEA89FB897A
:10170000808180620AC09FB7F894EE89FF89608368
:10171000E889F98980818370806480839FBF81E03C
:1017200090E0DF91CF911F910F91FF90EF9008957E
:10173000CF93DF93EC01888D8823C9F0EA89FB8978
:10174000808185FD05C0A889B9898C9186FD0FC06F
:101750000FB607FCF5CF808185FFF2CFA889B98944
:101760008C9185FFEDCFCE010E94290BE7CFDF9151
:10177000CF91089580E090E0892B29F00E941F0B03
:1017800081110C9400000895833081F028F4813099
:1017900099F08230A1F008958730A9F08830B9F02F
:1017A0008430D1F4809180008F7D03C080918000CF
:1017B0008F7780938000089584B58F7702C084B5B9
:1017C0008F7D84BD08958091B0008F7703C0809194
:1017D000B0008F7D8093B000089585ED8093BC00AC
:1017E0008091BC0084FDFCCF1092E80208954091E6
:1017F0009602262F30E0240F311D21323105DCF412
:101800002091E8022430C9F4FC0180E090E08617C2
:1018100058F4309196022191DC01AA58BD4FA30FD4
:10182000B11D2C930196F3CF80919602680F6093BF
:10183000960280E0089581E0089582E00895089579
:1018400008950895E091F7018091F601E81730F4CA
:10185000F0E0E850FE4F808190E008958FEF9FEF19
:1018600008959091F7018091F601981750F4E92FAF
:10187000F0E0E850FE4F208130E09F5F9093F70149
:1018800002C02FEF3FEFC90108958091F60190E06B
:101890002091F701821B91090895CF92DF92EF9278
:1018A000FF920F931F93CF93DF937C01CB018A01AB
:1018B0002091E902222389F0EB016B01C40ED51EB1
:1018C000CC15DD0569F06991D701ED91FC9101908E
:1018D000F081E02DC7010995F3CF642F0E94F70B2B
:1018E000C801DF91CF911F910F91FF90EF90DF9092
:1018F000CF900895CF93DF931F92CDB7DEB7698362
:101900002091E9022223D1F020910C03203240F0F3
:1019100021E030E0FC013383228380E090E015C0B9
:101920008091EA02E82FF0E0E551FD4F9981908324
:101930008F5F8093EA0280930C0305C061E0CE01C3
:1019400001960E94F70B81E090E00F90DF91CF911C
:1019500008950E94C21F6115710579F0FB01019085
:101960000020E9F73197AF01461B570BDC01ED91E1
:10197000FC910280F381E02D099480E090E00895CD
:101980000F931F93CF93DF93EC010E94AB0C8C015C
:1019900060EE71E0CE010E94AB0C800F911FDF91D1
:1019A000CF911F910F9108950C94AB0C1F920F9241
:1019B0000FB60F9211242F933F934F935F936F9322
:1019C0007F938F939F93AF93BF93EF93FF938FE09A
:1019D00095E00E94290BFF91EF91BF91AF919F91EC
:1019E0008F917F916F915F914F913F912F910F90C8
:1019F0000FBE0F901F9018951F920F920FB60F9267
:101A000011242F938F939F93EF93FF93E0911F05E2
:101A1000F09120058081E0912505F091260582FD59
:101A200012C09081809128058F5F8F7320912905C6
:101A3000821751F0E0912805F0E0E15FFA4F958FB1
:101A40008093280501C08081FF91EF919F918F9134
:101A50002F910F900FBE0F901F901895CF93DF938B
:101A6000282F30E0F901E254FF4F8491F901E65547
:101A7000FF4FD491F901EA56FF4FC491CC2391F066
:101A800081110E94C40BEC2FF0E0EE0FFF1FE45712
:101A9000FF4FA591B491EC91ED2381E090E021F40A
:101AA00080E002C080E090E0DF91CF9108951F9325
:101AB000CF93DF93282F30E0F901E254FF4F849158
:101AC000F901E655FF4FD491F901EA56FF4FC49151
:101AD000CC23C1F0162F81110E94C40BEC2FF0E033
:101AE000EE0FFF1FEE57FF4FA591B4919FB7F894EB
:101AF000111104C08C91D095D82302C0EC91DE2B3B
:101B0000DC939FBFDF91CF911F910895CF93DF9317
:101B100090E0FC01E655FF4F2491FC01EA56FF4F8F
:101B20008491882361F190E0880F991FFC01E858A7
:101B3000FF4FC591D491FC01EE57FF4FA591B49191
:101B4000611109C09FB7F89488812095822388830A
:101B5000EC912E230BC0623061F49FB7F89488811A
:101B6000322F309583238883EC912E2B2C939FBFAB
:101B700006C08FB7F894E8812E2B28838FBFDF91A2
:101B8000CF9108953FB7F8948091BE029091BF0223
:101B9000A091C002B091C10226B5A89B05C02F3FFD
:101BA00019F00196A11DB11D3FBFBA2FA92F982F83
:101BB0008827820F911DA11DB11DBC01CD0142E0FE
:101BC000660F771F881F991F4A95D1F708958F9246
:101BD0009F92AF92BF92CF92DF92EF92FF926B01F2
:101BE0007C010E94C20D4B015C01C114D104E104CF
:101BF000F104F1F00E94C20DDC01CB0188199909B2
:101C0000AA09BB09883E9340A105B10570F321E004
:101C1000C21AD108E108F10888EE880E83E0981E08
:101C2000A11CB11CC114D104E104F10419F7DDCFEA
:101C3000FF90EF90DF90CF90BF90AF909F908F90EC
:101C400008952FB7F8946091BA027091BB02809109
:101C5000BC029091BD022FBF08951F920F920FB644
:101C60000F9211242F933F938F939F93AF93BF9322
:101C70008091BA029091BB02A091BC02B091BD02CA
:101C80003091B90223E0230F2D3720F40196A11DD6
:101C9000B11D05C026E8230F0296A11DB11D20939A
:101CA000B9028093BA029093BB02A093BC02B09396
:101CB000BD028091BE029091BF02A091C002B0917E
:101CC000C1020196A11DB11D8093BE029093BF0277
:101CD000A093C002B093C102BF91AF919F918F9129
:101CE0003F912F910F900FBE0F901F9018951F924C
:101CF0000F920FB60F9211242F933F934F935F9340
:101D00006F937F938F939F93AF93BF93EF93FF93C3
:101D10008091B900887F803609F49CC068F58832CC
:101D200009F45BC090F4803109F454C038F488237E
:101D300009F4F6C0883009F44DC0F6C0883109F4C2
:101D40004CC0803209F45DC0EFC0803409F468C033
:101D500048F4803309F455C0883309F0E5C0809316
:101D6000E602D8C0803509F44FC0883509F45DC05B
:101D7000883409F0D9C0D6C0883909F4C7C0A8F49E
:101D8000883709F467C038F4883609F463C08037AF
:101D900009F460C0C9C0883809F4B8C0803909F4B2
:101DA0005FC0803809F0C0C05BC0803B09F486C0CA
:101DB00038F4803A09F466C0883A09F47FC0B4C0A8
:101DC000803C09F4A7C0883C09F4A4C0883B09F40E
:101DD0008AC0AAC08091C30210C09091E502809190
:101DE000E402981770F5E091E50281E08E0F809390
:101DF000E502F0E0EC53FD4F80818093BB0085EC61
:101E000086C08093E6028EC0E091E50281E08E0FED
:101E10008093E5028091BB00F0E0EC53FD4F80839E
:101E20009091E5028091E4026EC0E091E50281E0CC
:101E30008E0F8093E5028091BB00F0E0EC53FD4FE4
:101E400080838091E70281116DC081E08093C2029E
:101E500084EA61C083E08093E8021092B802CFCF99
:101E60008091B802803208F051C0E091B80281E060
:101E70008E0F8093B8028091BB00F0E0E856FD4FD2
:101E80008083BDCF85EC8093BC001092E8028091E6
:101E9000B802803230F4E091B802F0E0E856FD4F2D
:101EA00010826091B80270E0E091F201F091F301CC
:101EB00088E992E009951092B80236C084E08093D8
:101EC000E8021092970210929602E091F401F091CC
:101ED000F501099580919602811105C081E08093FA
:101EE000960210927602E091970281E08E0F809325
:101EF0009702F0E0EA58FD4F80818093BB009091FB
:101F0000970280919602981708F479CF85E880931C
:101F1000BC000AC085EC8093BC001092E80204C0AB
:101F20001092E6020E94ED0BFF91EF91BF91AF91ED
:101F30009F918F917F916F915F914F913F912F91E1
:101F40000F900FBE0F901F901895809171028823FB
:101F5000A9F14091200150912101609122017091DD
:101F600023012DE033E080910D0590910E050E9434
:101F7000F507811102C080E00895409172025091EE
:101F800073026091740270917502411551056105EB
:101F9000710591F02DE033E080910D0590910E05D3
:101FA0000E94F507882339F310927202109273028F
:101FB00010927402109275021092710281E00895DD
:101FC0008F929F92AF92BF92EF92FF920F931F93C7
:101FD000CF934B015C01C42F80912001909121018E
:101FE000A0912201B091230188159905AA05BB058E
:101FF00001F10E94A50F811102C080E020C08DE098
:10200000E82E83E0F82E00E012E020E030E0B50199
:10201000A40180910D0590910E050E948B048823E8
:1020200061F38092200190922101A0922201B0924E
:10203000230180917102C82BC093710281E0CF917E
:102040001F910F91FF90EF90BF90AF909F908F9056
:1020500008954F925F926F927F928F929F92AF926C
:10206000BF92CF92DF92EF92FF920F931F93CF9385
:10207000DF93EC01423051056105710510F480E0F9
:1020800078C089859A85AB85BC850196A11DB11D57
:1020900084179507A607B70790F3CB88DC88ED88EF
:1020A000FE888F89803129F4BB27A72F962F852F93
:1020B00009C0DB01CA01E7E0B695A795979587951A
:1020C000EA95D1F7480159012A013B01C80ED91EF2
:1020D000EA1EFB1E8091200190912101A091220116
:1020E000B0912301C816D906EA06FB0681F48F8950
:1020F0008031A9F4B301A201552766277727440F41
:10210000551FFA01E35FFC4F9182808219C040E0C5
:10211000C701B6010E94E00F8111E9CFB0CFB30132
:10212000A2014F77552766277727440F551F440F85
:10213000551FFA01E35FFC4F80829182A282B38235
:10214000809171028160809371028A89823080F06F
:102150008D819E81AF81B885C80ED91EEA1EFB1EF7
:10216000C0927202D0927302E0927402F0927502F1
:1021700081E0DF91CF911F910F91FF90EF90DF9061
:10218000CF90BF90AF909F908F907F906F905F9017
:102190004F9008958F929F92AF92BF92CF92DF920D
:1021A000EF92FF920F931F93CF93DF93FC018185F2
:1021B0009285A385B4850196A11DB11D841795074D
:1021C000A607B70710F480E05BC083889488A588D1
:1021D000B6888789803129F4BB27A72F962F852FB2
:1021E00009C0DB01CA01C7E0B695A7959795879509
:1021F000CA95D1F7E9016A017B018F01BC01CD01CC
:10220000680D791D8A1D9B1D8090200190902101F1
:10221000A0902201B0902301681579058A059B05DD
:1022200091F4F80187898031A1F4DD24EE24FF24A4
:10223000C601880F991FFC01E35FFC4F80819181EB
:10224000A0E0B0E018C040E00E94E00F8111E9CFAB
:10225000BACFE894C7F8DD24EE24FF24C601880F26
:10226000991F880F991FFC01E35FFC4F80819181CA
:10227000A281B381BF7088839983AA83BB8381E0E5
:10228000DF91CF911F910F91FF90EF90DF90CF9052
:10229000BF90AF909F908F900895EF92FF920F9311
:1022A0001F93CF93DF93EC017B018A011B821A827B
:1022B00088EE93E0A0E0B0E08C839D83AE83BF8383
:1022C0008AE691E0998388838DE190E00E94A11EC7
:1022D0009A8F898F009779F02DE1F701DC01019049
:1022E0000D922A95E1F74CE050E0B801CE010C9632
:1022F0000E94D41F188EDF91CF911F910F91FF90F4
:10230000EF900895682F8CEA95E00C947A0CCF93A7
:10231000DF93FC01828193819093060680930506EA
:1023200084819581A681B7818093070690930806E2
:10233000A0930906B0930A0680859185A285B3858E
:1023400080930B0690930C06A0930D06B0930E0697
:10235000EF012C96AFE0B6E089918D9386E0AC3129
:10236000B807D1F7818D928D90931D0680931C063E
:1023700083E096E0DF91CF9108954F925F926F9244
:102380007F92AF92BF92CF92DF92EF92FF920F9324
:102390001F93CF93DF9300D000D0CDB7DEB78C0171
:1023A00049835A836B837C835901C12CD12C7601DC
:1023B000412C82E0582E612C712C49815A816B810D
:1023C0007C819E012F5F3F4FC8010E94CA10882365
:1023D00051F1D301C201F801058404C0880F991F8F
:1023E000AA1FBB1F0A94D2F7C80ED91EEA1EFB1EF5
:1023F00049815A816B817C818789803129F088EFFE
:102400009FEFAFEFBFE004C088EF9FEFA0E0B0E028
:10241000481759076A077B0780F2F501C082D1820D
:10242000E282F38281E00F900F900F900F90DF9186
:10243000CF911F910F91FF90EF90DF90CF90BF90C1
:10244000AF907F906F905F904F9008950F931F9380
:10245000CF93DF93CDB7DEB7C755D1090FB6F89448
:10246000DEBF0FBECDBF8C0164EE75E0CE010196DC
:102470000E941D0ABE016F5F7F4FCE01CB960E9466
:102480001D0A19A218A282E591E09F8F8E8F1BA2D0
:1024900021968FAD2197811113C0F801138212820A
:1024A00088EE93E0A0E0B0E084839583A683B783B1
:1024B0008AE691E091838083128E118E148633C058
:1024C000825023E143EE51E0823048F464EE75E03F
:1024D000CE014E960E94080681110EC0DECFBE01CD
:1024E000655C7F4FCE014E960E9408068823A9F2B4
:1024F000CE01CB960E94A70349A95AA96BA97CA932
:10250000CE014E960E941302BE01625E7F4FCE0145
:1025100001960E941D0A43EE51E0BE016F5F7F4F9E
:10252000C8010E944D11C801C95ADF4F0FB6F89477
:10253000DEBF0FBECDBFDF91CF911F910F910895E8
:102540008F929F92AF92BF92CF92DF92EF92FF92C3
:10255000CF93DF93C82F8AEB95E090930E0580937D
:102560000D05CC2369F1C53010F080E00CC140E0CE
:1025700060E070E0CB010E94E00F8823B1F320E11E
:10258000C29FC001112483509D4FFC01E254FE4FB5
:1025900020812F7751F73C96408151816281738170
:1025A000443651056105710500F33497C080D18030
:1025B000E280F380C114D104E104F10421F4D5CF09
:1025C000C12CD12C760140E0C701B6010E94E00F7A
:1025D000882359F280911803909119038115924034
:1025E00021F6A0911D03AA2309F4BFCF60911B031C
:1025F00070911C036115710509F4B7CF20911A037E
:10260000222309F4B2CFA093D8052093CA0580E015
:1026100030E041E050E0C82FFA01082E02C0EE0F72
:10262000FF1F0A94E2F72E173F0739F08F5FC8307B
:1026300091F789E08093D30598CF8093D3052091BB
:102640002303309124032115310519F040E050E0B7
:1026500008C02091310330913203409133035091EF
:1026600034032093CB053093CC054093CD05509394
:10267000CE0546015701860E971EA11CB11C809203
:10268000D9059092DA05A092DB05B092DC05E091C5
:102690001E03F0911F03F093DF05E093DE05B0E029
:1026A0000E946D1E860E971EA81EB91E8092E00520
:1026B0009092E105A092E205B092E30585E0EE0F6D
:1026C000FF1F8A95E1F7E150FE4FEF2FFF27E695B8
:1026D0008E0E9F1EA11CB11C8092D4059092D50530
:1026E000A092D605B092D705209120033091210306
:1026F0002115310521F0A90160E070E008C040918A
:102700002D0350912E0360912F0370913003D70158
:10271000C60188199909AA09BB09840F951FA61F2C
:10272000B71F04C0B695A79597958795CA95D2F718
:102730008093CF059093D005A093D105B093D20597
:10274000853F2FE09207A105B10510F48CE018C079
:10275000853F9F4FA105B10510F480E111C0809124
:10276000390390913A03A0913B03B0913C038093CD
:10277000E0059093E105A093E205B093E30580E2C4
:102780008093DD0581E0DF91CF91FF90EF90DF90A6
:10279000CF90BF90AF909F908F900895282F309149
:1027A0000C03313208F04AC08091E8028111FCCF5D
:1027B00090910B0342E04093E8022093E7022FEF51
:1027C0002093E6021092E5023093E402EBEEF2E091
:1027D000A4ECB2E020E0321721F041914D932F5F3D
:1027E000FACF1092C3022091C302990F922B9093BB
:1027F000C3029091C202913061F41092C202909192
:10280000C3029093BB009091BC0093FDF8CF95EC70
:1028100001C095EE9093BC009091E8029230E1F3F4
:102820009091E6029F3F79F08091E602803241F07C
:102830008091E602803331F084E005C081E003C07E
:1028400082E001C083E01092EA0210920C03109221
:10285000E90208958F929F92AF92BF92CF92DF923A
:10286000EF92FF920F931F93CF93DF930E94210E5D
:10287000609331067093320680933306909334064A
:1028800080913506882309F0F8941092360610924C
:102890003706109238061092390610923A0661E017
:1028A000809126060E94860D60E0809126060E9497
:1028B000570D6091270670E080E090E00E94E70DE0
:1028C00060E0809126060E94860D8BE990E00197DA
:1028D000F1F7C0E9D1E0809126060E942E0D892BE8
:1028E00029F42197C1F78EEF9FEF4CC0C0E9D1E0EA
:1028F000809126060E942E0D019719F42197C1F7A9
:10290000F2CFD8E2C0E810E030E9E32EFF24F394E0
:10291000809126060E942E0D892B29F481E0E81A69
:10292000F108B1F7E0CF0E94C20D4B015C0120E934
:10293000E22EFF24F394809126060E942E0D01972B
:1029400029F481E0E81AF108B1F7CDCF0E94C20D59
:10295000DC01CB0188199909AA09BB098997A1054E
:10296000B10538F0E12FF0E0E25EF94F808D8C2B5D
:10297000808FC69511F41F5FC0E8D15009F0C4CF15
:1029800080E090E020913506222309F078940097AA
:10299000A9F040E050EC69E774EC40931E065093B8
:1029A0001F066093200670932106409322065093E1
:1029B00023066093240670932506D3C080912806D1
:1029C00010913606D091370600913806C09139062D
:1029D000863171F5612F70E0762F66276D0F711DBE
:1029E000072E000C880B990B0E94541D2DEC3CEC1B
:1029F0004CEC5DE30E94E01D60931E0670931F0681
:102A00008093200690932106602F6F7770E0762FD9
:102A100066276C0F711D072E000C880B990B0E9406
:102A2000541D2DEC3CEC4CEC5DE30E94E01D3CC0E1
:102A30006D2F70E080E090E00E94541D2DEC3CEC86
:102A40004CEC5DE30E94E01D6B017C01612F70E0A6
:102A500080E090E00E94541D9B01AC01C701B601CB
:102A60000E94B01C60931E0670931F068093200680
:102A7000909321066C2F70E080E090E00E94541D3E
:102A80002DEC3CEC4CEC5DE30E94E01D6B017C0105
:102A9000602F70E080E090E00E94541D9B01AC012B
:102AA000C701B6010E94B01C6093220670932306F2
:102AB000809324069093250607FF11C0809122067B
:102AC00090912306A0912406B0912506B0588093DA
:102AD000220690932306A0932406B0932506209106
:102AE000290630912A0640912B0650912C066091C0
:102AF0001E0670911F0680912006909121060E946B
:102B0000B01C60931E0670931F068093200690935E
:102B1000210620912D0630912E0640912F065091CE
:102B200030066091220670912306809124069091D0
:102B300025060E94B01C60932206709323068093A2
:102B4000240690932506100FD10FCD0F81E090E061
:102B500020913A06C21302C080E090E091958195E1
:102B60009109DF91CF911F910F91FF90EF90DF902E
:102B7000CF90BF90AF909F908F900895CF93DF93A9
:102B8000CDB7DEB76B970FB6F894DEBF0FBECDBFE3
:102B9000789484B5826084BD84B5816084BD85B538
:102BA000826085BD85B5816085BD80916E00816044
:102BB00080936E00109281008091810082608093EA
:102BC00081008091810081608093810080918000EC
:102BD0008160809380008091B10084608093B10017
:102BE0008091B00081608093B00080917A00846011
:102BF00080937A0080917A00826080937A0080913D
:102C00007A00816080937A0080917A008068809356
:102C10007A001092C10061E08DE00E94860DE09183
:102C20001F05F091200582E08083E0911B05F09163
:102C30001C051082E0911D05F0911E0580E1808346
:102C400010922705E0912305F091240586E080830A
:102C5000E0912105F0912205808180618083E091DF
:102C60002105F0912205808188608083E091210513
:102C7000F0912205808180688083E0912105F091A8
:102C8000220580818F7D808368E771E08FE095E089
:102C90000E94D40C1092C5051092C3051092C00575
:102CA0001092BF058AE08093BE050E94210E8B0121
:102CB00061E08091BE050E94860D61E08091BE05B5
:102CC0000E94570D0E946E0A82E58093B80510920B
:102CD000B9058091B8059091B9050E9410042AE0C9
:102CE000F22E8FEF0E94D103FA94F110FACF809167
:102CF000180281110E94B3038AEB95E00E9426041A
:102D000020E030E0A90160E08AEB95E00E943C04FD
:102D1000F82E8093C40521E0821749F00E94210E0D
:102D2000601B710B613D774058F381E056C02AEA81
:102D300031E040E050E068E08AEB95E00E943C041E
:102D400082FF03C0F092C50510C094E0F92E0E94E6
:102D5000D8038093C405FA94F110F9CF8A3A11F0A0
:102D600082E03BC082E08093C5058091C50582303A
:102D700031F4C12CD12CE12C80E4F82E03C0C12CFD
:102D8000D12C760120E030E0A90167E38AEB95E0E1
:102D90000E943C04A701960169E28AEB95E00E943B
:102DA0003C048093C405882349F00E94210E601BD7
:102DB000710B613D774030F388E00FC08091C5050D
:102DC000823001F520E030E0A9016AE38AEB95E06A
:102DD0000E943C04882341F086E08093BF058AEB83
:102DE00095E00E94C00328C50E94D803807C803CE7
:102DF00019F483E08093C5050E94D8030E94D8038C
:102E00000E94D8038AEB95E00E94C00380E580937E
:102E1000B8051092B90581E00E94A012882329F01C
:102E20008091E905882341F007C580E00E94A01247
:102E3000882309F401C5F4CF8091DD05803109F5BF
:102E400082E08093E9051092FB051092FC05109238
:102E5000FD051092FE058091DE059091DF05A0E052
:102E6000B0E005E0880F991FAA1FBB1F0A95D1F794
:102E70008093F7059093F805A093F905B093FA05B0
:102E80001FC0803209F0D8C483E08093E9054091E7
:102E9000E0055091E1056091E2057091E3054093F2
:102EA000FB055093FC056093FD057093FE0527EF2D
:102EB00035E086EC95E00E94BD11882309F4BCC47E
:102EC00086EC95E0909300068093FF0511E0109347
:102ED000E8051092EA051092EB051092EC051092AD
:102EE000ED051092EE051092EF051092F00510928C
:102EF000F1051092F2051092F3051092F40510926C
:102F0000F5051092F60560E971E08FE095E00E940A
:102F1000C00C109366021092F7011092F601109205
:102F2000EA0210920C031092E80281E08093E7021B
:102F30001092C20261E082E10E94570D61E083E1DC
:102F40000E94570D8091B9008E7F8093B9008091C7
:102F5000B9008D7F8093B90088E48093B80085E440
:102F60008093BC008FE19CE09093F5018093F40185
:102F700080E29CE09093F3018093F20165EA71E0B6
:102F80008FE095E00E94C00C80916602882349F191
:102F9000CE0101960E942612CE0101960E94871151
:102FA000E0911C06F0911D063097D9F085818823A9
:102FB000C1F065EA71E083E096E00E94C00C809168
:102FC0001C0690911D06009761F00E94A703809156
:102FD0001C0690911D060E94391F10921D0610922A
:102FE0001C061092700210926F0285E090E09093A0
:102FF0006E0280936D0282E090E00E94991C813401
:1030000009F001C483E090E00E94991C8D3409F01E
:10301000FAC380E090E00E94991C182F81E090E0B4
:103020000E94991C212F30E0322F2227280F311DBA
:1030300030936E0220936D0222242394AAE03A2E4C
:10304000B4E64B2E512C1AE0812E912C2092E902ED
:1030500058E650930B031092EA0210920C0380E0A2
:1030600090E00E94821180E00E94CE138091E802DD
:103070008111FCCF2092E8022092E7026FEF60936B
:10308000E6021092E50286E08093E4022092C302F9
:103090008091C302806D8093C3028091C20281300F
:1030A00071F41092C2028091C3028093BB008091A0
:1030B000BC0083FDF8CF95EC9093BC0003C025EED7
:1030C0002093BC008091E8028130E1F38091E50219
:1030D000873018F49091E50201C097E0A4ECB2E0CB
:1030E000E8EFF1E080E0891721F02D9121938F5FC7
:1030F000FACF1092F7018093F6018CEA95E00E94D6
:10310000310C8C018CEA95E00E94310C5C018CEA58
:1031100095E00E94310C6C018CEA95E00E94310C24
:103120008CEA95E00E94310C7C018CEA95E00E94CB
:10313000310C3C018CEA95E00E94310C9801332758
:1031400044E0359527954A95E1F70F704AE0249FB2
:10315000000D112400936B029501332754E035953F
:1031600027955A95E1F74A2D4F70A42E5AE0259FD6
:10317000A00C1124A0921A029601332764E0359521
:1031800027956A95E1F74C2D4F70C42E6AE0269F73
:10319000C00C1124C0921B029701332774E03595AF
:1031A00027957A95E1F74E2D4F70E42E5AE0259F32
:1031B000E00C1124E0921C0293013327E4E03595E2
:1031C0002795EA95E1F7462D4F70642E6AE0269F19
:1031D000600C112460921D029C013327F4E03595A8
:1031E0002795FA95E1F78F709AE0299F800D1124B9
:1031F000282F80931E02802F632D0E944D1E905D0C
:1032000090930701805D809306018A2D0E944D1ED8
:10321000905D90930401805D809303018C2D0E944A
:103220004D1E905D90930101805D80930001822F7F
:103230000E944D1E905D90930C01805D80930B0168
:10324000862D0E944D1E905D90930F01805D8093AE
:103250000E018E2D0E944D1E905D90931201805D97
:103260008093110180916C02801759F000936C02D9
:1032700080916F02909170020196909370028093FA
:103280006F0220916F023091700280916D029091D7
:103290006E022817390709F01FC1109270021092B0
:1032A0006F0280912806882319F00E942A1415C005
:1032B00086E180932806209227060E942A14892BF3
:1032C00061F08BE08093280682E1809327060E94BC
:1032D0002A14892B11F01092280620E030E040E2F9
:1032E00051E460911E0670911F0680912006909116
:1032F00021060E94E01D0E941C1D8B0170936A0232
:103300006093690220E030E040E251E460912206DF
:103310007091230680912406909125060E94E01D5D
:1033200020E030E040E05FE30E94AF1C0E941C1DE3
:10333000709368026093670277FF0BC02DE22093C1
:103340001A01719561957109709368026093670223
:1033500003C020E220931A01209167023091680295
:10336000C901B2010E94591ECB01B4010E94591E2D
:10337000805D80931B01C901B4010E94591E282F52
:10338000CB01B4010E94591E805D80931C01205D19
:1033900020931E01083E33E0130724F041E34093DD
:1033A000140103C050E250931401C801B2010E94FD
:1033B000591ECB01B4010E94591E805D80931501F6
:1033C000C801B4010E94591E282FCB01B4010E94EC
:1033D000591E805D80931601205D2093180169E0DD
:1033E00071E08FE095E00E94D40C64EC71E08FE016
:1033F00095E00E94D40C60E071E08FE095E00E94BF
:10340000D40C64EC71E08FE095E00E94D40C6AE18A
:1034100071E08FE095E00E94D40C64EC71E08FE0E5
:1034200095E00E94D40C64E171E08FE095E00E9489
:10343000C00C80916602882309F44EC0CE0101962B
:103440000E942612CE0101960E948711E0911C066F
:10345000F0911D06309709F43FC085818823E1F182
:1034600069E071E083E096E00E94D40C64EC71E0C6
:1034700083E096E00E94D40C60E071E083E096E087
:103480000E94D40C64EC71E083E096E00E94D40CBE
:103490006AE171E083E096E00E94D40C64EC71E094
:1034A00083E096E00E94D40C64E171E083E096E052
:1034B0000E94C00C80911C0690911D06009761F03F
:1034C0000E94A70380911C0690911D060E94391F3F
:1034D00010921D0610921C06109225028FE095E0B6
:1034E0000E94130B18161906CCF40E94210E60934B
:1034F0002102709322028093230290932402109160
:1035000020028FE095E00E94F10AE12FF0E0EA5DF1
:10351000FD4F808381E0810F809320020E94210E65
:103520000091210210912202209123023091240265
:10353000DC01CB01801B910BA20BB30B0697A105FD
:10354000B10520F080912002811173C18091250284
:10355000882309F428C18091200280931F021092D1
:1035600020021092250290912602933509F0B2C0F4
:103570008A3008F4AFC020912702220F2056822FF4
:10358000880F880F280F809128028053280F3091D0
:103590002902330F3056832F880F880F380F809100
:1035A0002A028053380F80912B02880F8056482FB3
:1035B000440F440F840F90912C029053482F490FD1
:1035C00080912D02880F8056582F550F550F850F6B
:1035D00090912E029053582F590F80912F02880FEF
:1035E0008056982F990F990F890F90913002905320
:1035F000890F632D0E944D1ED92E60E1869FD00C4D
:103600001124D0921A02852F632D0E944D1EE92E9F
:1036100050E1859FE00C1124E0921B02842F0E9450
:103620004D1EF92E60E1869FF00C1124F0921C02D1
:10363000832F632D0E944D1E092F30E1839F000DC3
:10364000112400931D02822F0E944D1E192F40E16C
:10365000849F100D112410931E022092E90258E657
:1036600050930B031092EA0210920C0380E090E05A
:103670000E94821180E090E00E9482116D2D8CEA00
:1036800095E00E947A0C6E2D8CEA95E00E947A0CEF
:1036900081E090E00E9482116F2D8CEA95E00E94FB
:1036A0007A0C602F8CEA95E00E947A0C612F8CEAEC
:1036B00095E00E947A0C81E00E94CE1368EC70E0E5
:1036C00080E090E00E94E70D66EC71E08FE095E00D
:1036D0000E94C00C80912602893409F042C080917A
:1036E0001F028430F1F58091270290E0C09724E614
:1036F000289FA001299F500D11242091280230E01D
:1037000020533109329EC001339E900D1124840F45
:10371000951F20912902820F911DC09790936E02F0
:1037200080936D02692F80E090E00E94A40A60916E
:103730006D0281E090E00E94A40A61E482E090E0E2
:103740000E94A40A6DE483E090E00E94A40A109213
:10375000700210926F0266EC71E08FE095E00E94BB
:10376000C00C91E080912602823509F090E081E062
:1037700020912702233509F080E08923A1F0809170
:103780002802843581F46DE282E090E00E94A40A70
:103790006DE283E090E00E94A40A66EC71E08FE0A5
:1037A00095E00E94C00C62E370E080E090E00E942F
:1037B000E70D9FB7F89480911902882319F0815082
:1037C0008093190280911902811105C08CB58F7BFD
:1037D0008CBD109218029FBF61E08DE00E94570DD2
:1037E0006AEF70E080E090E00E94E70D60E08DE01D
:1037F0000E94570D6AEF70E080E090E00E94E70DB4
:103800000E946E0A23CC60E080E090E00E94A40A4F
:1038100060916D0281E090E00E94A40A61E482E080
:1038200090E00E94A40A6DE483E090E00E94A40A64
:1038300003CC209225028ACE69EC71E08FE095E0FE
:103840000E94C00C68CBEFE0F5E01382128288EE94
:1038500093E0A0E0B0E084839583A683B7832EE253
:1038600031E03183208325EC30E03587248724EC58
:1038700030E03787268720EC30E0318B208B21EC3D
:1038800030E0338B228B22EC30E0358B248B26EC1E
:1038900030E0378B268B118E128E138E148EECEA4D
:1038A000F5E01382128284839583A683B78320E494
:1038B00031E031832083E8EBF5E020E520831182BD
:1038C000EAEBF5E0158216821186138642E050E09D
:1038D00060E070E0448755876687778713A215A656
:1038E00014A622E531E033A722A717A6EEE1F6E001
:1038F0001186128613861486158616861786108AF8
:10390000118A128A138A148A158A168A178A22E063
:103910002087E3E0F6E01382128284839583A683F6
:10392000B7838AE691E091838083128E118E14868C
:103930000895F999FECF92BD81BDF89A992780B577
:103940000895262FF999FECF1FBA92BD81BD20BDE3
:103950000FB6F894FA9AF99A0FBE01960895505846
:10396000BB27AA270E94C71C0C94A61D0E94981D65
:1039700038F00E949F1D20F039F49F3F19F426F47F
:103980000C94951D0EF4E095E7FB0C948F1DE92F28
:103990000E94B71D58F3BA1762077307840795078B
:1039A00020F079F4A6F50C94D91D0EF4E0950B2EB9
:1039B000BA2FA02D0B01B90190010C01CA01A00181
:1039C0001124FF27591B99F0593F50F4503E68F1DC
:1039D0001A16F040A22F232F342F4427585FF3CF1D
:1039E000469537952795A795F0405395C9F77EF4EE
:1039F0001F16BA0B620B730B840BBAF09150A1F037
:103A0000FF0FBB1F661F771F881FC2F70EC0BA0FBC
:103A1000621F731F841F48F4879577956795B79544
:103A2000F7959E3F08F0B0CF9395880F08F099273F
:103A3000EE0F9795879508950E94231D6894B11104
:103A40000C94DA1D08950E94BF1D88F09F5798F0CE
:103A5000B92F9927B751B0F0E1F0660F771F881F93
:103A6000991F1AF0BA95C9F714C0B13091F00E94AD
:103A7000D91DB1E008950C94D91D672F782F8827A0
:103A8000B85F39F0B93FCCF3869577956795B395D4
:103A9000D9F73EF490958095709561957F4F8F4F43
:103AA0009F4F0895E89409C097FB3EF49095809548
:103AB000709561957F4F8F4F9F4F9923A9F0F92FF4
:103AC00096E9BB279395F695879577956795B79572
:103AD000F111F8CFFAF4BB0F11F460FF1BC06F5F58
:103AE0007F4F8F4F9F4F16C0882311F096E911C06A
:103AF000772321F09EE8872F762F05C0662371F08B
:103B000096E8862F70E060E02AF09A95660F771F9E
:103B1000881FDAF7880F9695879597F9089597F992
:103B20009F6780E870E060E008959FEF80EC089563
:103B300000240A941616170618060906089500248C
:103B40000A9412161306140605060895092E039406
:103B5000000C11F4882352F0BB0F40F4BF2B11F47A
:103B600060FF04C06F5F7F4F8F4F9F4F089557FDD9
:103B70009058440F551F59F05F3F71F04795880FDB
:103B800097FB991F61F09F3F79F087950895121672
:103B900013061406551FF2CF4695F1DF08C016161E
:103BA00017061806991FF1CF8695710561050894CF
:103BB0000895E894BB2766277727CB0197F90895E6
:103BC0000E94F31D0C94A61D0E94981D38F00E94BF
:103BD0009F1D20F0952311F00C948F1D0C94951DC2
:103BE00011240C94DA1D0E94B71D70F3959FC1F348
:103BF000950F50E0551F629FF001729FBB27F00D9B
:103C0000B11D639FAA27F00DB11DAA1F649F6627EF
:103C1000B00DA11D661F829F2227B00DA11D621F3E
:103C2000739FB00DA11D621F839FA00D611D221FF8
:103C3000749F3327A00D611D231F849F600D211DDC
:103C4000822F762F6A2F11249F5750409AF0F1F05F
:103C500088234AF0EE0FFF1FBB1F661F771F881FC8
:103C600091505040A9F79E3F510580F00C948F1D54
:103C70000C94DA1D5F3FE4F3983ED4F38695779574
:103C80006795B795F795E7959F5FC1F7FE2B880F6E
:103C9000911D9695879597F90895991B79E004C031
:103CA000991F961708F0961B881F7A95C9F780957B
:103CB000089597FB072E16F4009407D077FD09D0DE
:103CC0000E94781E07FC05D03EF4909581959F4F89
:103CD0000895709561957F4F08950E94921EA59F4B
:103CE000900DB49F900DA49F800D911D11240895F7
:103CF000AA1BBB1B51E107C0AA1FBB1FA617B70712
:103D000010F0A61BB70B881F991F5A95A9F780952D
:103D10009095BC01CD010895EE0FFF1F0590F49121
:103D2000E02D0994A29FB001B39FC001A39F700D25
:103D3000811D1124911DB29F700D811D1124911DB3
:103D400008950F931F93CF93DF938230910510F462
:103D500082E090E0E0913D06F0913E0620E030E008
:103D6000A0E0B0E0309719F14081518102811381C8
:103D700048175907C8F08417950769F4109731F070
:103D800012960C93129713961C9327C000933D062E
:103D900010933E0622C02115310519F04217530732
:103DA00018F49A01BD01EF01DF01F801DBCF211505
:103DB0003105F9F0281B390B2430310580F48A8154
:103DC0009B816115710521F0FB019383828304C0FF
:103DD00090933E0680933D06FE01329644C0FE015C
:103DE000E20FF31F81939193225031093983288385
:103DF0003AC020913B0630913C06232B41F42091A0
:103E000026013091270130933C0620933B062091F8
:103E10002401309125012115310541F42DB73EB71C
:103E20004091280150912901241B350BE0913B065C
:103E3000F0913C06E217F307A0F42E1B3F0B281766
:103E4000390778F0AC014E5F5F4F2417350748F013
:103E50004E0F5F1F50933C0640933B068193919316
:103E600002C0E0E0F0E0CF01DF91CF911F910F9110
:103E70000895CF93DF93009709F481C0FC01329736
:103E800013821282A0913D06B0913E06109781F4F4
:103E900020813181820F931F20913B0630913C0697
:103EA0002817390751F5F0933C06E0933B0667C0AD
:103EB000ED0120E030E0CE17DF0740F44A815B815E
:103EC0009E0141155105F1F0EA01F5CFD383C2837C
:103ED00040815181840F951FC817D90759F48881F3
:103EE0009981840F951F0296918380838A819B819B
:103EF000938382832115310529F4F0933E06E093E4
:103F00003D063DC0E901FB83EA8349915991C40F05
:103F1000D51FEC17FD0761F480819181840F951FF7
:103F20000296E90199838883828193819B838A83A6
:103F3000E0E0F0E012968D919C911397009719F0B4
:103F4000FD01DC01F7CF8D919C9111979D012E5FB2
:103F50003F4F820F931F20913B0630913C0628175C
:103F6000390769F4309729F410923E0610923D0605
:103F700002C013821282B0933C06A0933B06DF91ED
:103F8000CF91089581E090E0F8940C94E31FFB0139
:103F9000DC0104C08D910190801921F44150504002
:103FA000C8F7881B990B0895FB01DC014150504074
:103FB00048F001900D920020C9F701C01D924150B8
:0A3FC0005040E0F70895F894FFCF99
:103FCA0020203A20203A202000323020202F2020A2
:103FDA002F2020002030302E30002030302E3000AC
:103FEA00FFFFFFFF00003F068000000000004B0BB0
:103FFA00B80AE20A980B130BF10A050B000000003D
:10400A007A0C4D0CCC00210C450C310C220C000012
:10401A000000F009B80ACC00CB0000000000A90C8F
:10402A00B80ACC00CB0000000000B500010ACC00A1
:10403A0008019400C107CB07496E697469616C690C
:10404A007A696E6720534420636172642E2E2E00B3
:10405A00696E697469616C697A6174696F6E2064EA
:10406A006F6E652E00446174653B54696D653B54FF
:10407A00656D70657261747572653B48756D6964CA
:10408A00697479003B004F6B00696E697469616CF1
:10409A00697A6174696F6E206661696C6564210072
:1040AA000D0A0054656D704C6F672E7478740000A9
:00000001FF
